:040000006AEF04F0AF
:0800080004EF08F00000000005
:1000100000000000000000000CEF08F01000C950C4
:10002000D5C0C9FFC730D8A012EF00F0C9CF00F08B
:10003000120094948B94050ED56F0FEC00F0D56BE5
:100040000FEC00F0015000C0CEF094948B84000EB1
:10005000CEB1010E016E32EF00F094948B84120049
:1000600019EF00F00152D8A430EF00F094948B9473
:10007000CCC0D5F00FEC00F0CD53D8B442EF00F077
:100080002DEC00F0120094948B84949494948B84BF
:10009000040ECC6F010ECD6F30EC00F0800ECC6FF3
:1000A000010ECD6F30EC00F030EF01F0060ECC6F9A
:1000B000010ECD6F30EC00F0010ECC6FCD6B30EC4B
:1000C00000F0D56B0FEC00F02DEC00F0060ECC6FBD
:1000D000010ECD6F30EC00F0010ECC6F010ECD6F34
:1000E00030EC00F086518009876F87C0D5F00FECA7
:1000F00000F02DEC00F034EF01F0CEC0D1F0CFC015
:10010000D2F0D36BD46BD26BD36BD46BD1C0D5F0A0
:100110000FEC00F0CDC0D1F0CEC0D2F0CFC0D3F004
:10012000D46BD26BD36BD46BD1C0D5F00FEC00F095
:10013000CC51D06FD16BD26BD36BD0C0D5F00FEC5C
:1001400000F01200C553D8A4B8EF00F0C4513F0826
:10015000D8B0BAEF00F0FF0AD8A4B8EF00F0C3534C
:10016000D8A4B8EF00F0C2510008D8B0BAEF00F040
:10017000FFEF00F00B0ECC6FCD6B30EC00F0C5C084
:10018000CFF0C4C0CEF0C3C0CDF0C2C0CCF07DEC87
:1001900000F0D56B0FEC00F0CB51036ECA51026E2C
:1001A000C951016EC851006EFF0EC827D8A0C927DB
:1001B000D8A0CA27D8A0CB270052D8A4ECEF00F0D3
:1001C0000152D8A4ECEF00F00252D8A4ECEF00F0FA
:1001D0000352D8B4FDEF00F0C751036EC651C62BD1
:1001E000D8B4C72BE96E03C0EAFFD56B0FEC00F063
:1001F000015000C0EFFFCCEF00F02DEC00F014EF49
:1002000001F0C16BC0C0C5F0BFC0C4F0BEC0C3F038
:10021000BDC0C2F0C76BC10EC66FCB6BCA6BC96BDA
:10022000010EC86FA2EF00F0C151016E1200EA6A20
:10023000BC0EE96EEF50D8B42BEF01F0060E016E44
:10024000006A002EFED7012EFBD77B0E006E002E1B
:10025000FED7EF2EF3D7120094948B8443EF00F077
:10026000020E866F56EF00F0856B85513308D8A0DB
:1002700054EF01F0036A85510A0F016E000E03224C
:100280000150866F03C087F0C06BBF6BBE6B85C02B
:10029000BDF001EC01F087C0EAFF86C0E9FF01C0B4
:1002A000EFFF852B35EF01F0938881A870EF01F007
:1002B000969C969E969C8D8C969E8D8E080E866F33
:1002C000FA0EBC6F17EC01F0862FFAD7938881A83D
:1002D0006CEF01F0010E166E969C8D9C969E8D9E85
:1002E0009AEF04F0C16BC26BC2510108D8A0AAEF0B
:1002F00001F0C0C003F0BF51E96E03C0EAFFEF5048
:100300004008D8B095EF01F0C151100DF350C36F04
:10031000C0C003F0BF51E96E03C0EAFFEF50C32530
:10032000BF0F0A0FC16FA3EF01F0C151100DF350C1
:10033000C36FC0C003F0BF51E96E03C0EAFFEF50C6
:10034000C325D00FC16FC251C22BBF2BD8B4C02B55
:1003500074EF01F0C151016E1200F250036EF29E73
:10036000A6840F01550EA76EAA0EA76EA6820000E6
:100370000350F21200011200F6503F0B006EC00E47
:10038000F6160A00BBC001F00066D7EF01F0F65088
:10039000010FD8A4D7EF01F0000EF720030BD8A46B
:1003A000D7EF01F0A6880900ADEC01F00A00006665
:1003B000E4EF01F0EECFF5FF0152D8B4E5EF01F024
:1003C0000F000106E7EF01F000060B000C003F0EE6
:1003D000F6143F0AD8A4C4EF01F0ADEC01F00166B9
:1003E000C4EF01F0F86AFBEF03F0BE53D8A40BEFA3
:1003F00002F0BD513F08D8B00DEF02F0FF0AD8A4BB
:100400000BEF02F0BC53D8A40BEF02F0BB51000875
:10041000D8B00DEF02F02DEF02F0060ECC6F010EFA
:10042000CD6F30EC00F0036ABF513E0FE96E000E55
:100430000320EA6EEFCFC0F0C0C0CCF0CD6B30EC43
:1004400000F0BEC0CFF0BDC0CEF0BCC0CDF0BBC090
:10045000CCF07DEC00F02DEC00F011EF04F0BF5378
:10046000D8A445EF02F0BE513F08D8B047EF02F0E4
:10047000FF0AD8A445EF02F0BD53D8A445EF02F01F
:10048000BC510008D8B047EF02F062EF02F0060E50
:10049000CC6F010ECD6F30EC00F0020ECC6FCD6B47
:1004A00030EC00F0BFC0CFF0BEC0CEF0BDC0CDF08C
:1004B000BCC0CCF07DEC00F0C0C0D5F00FEC00F07B
:1004C0002DEC00F058EF04F0859385858B6B8A6BDB
:1004D000936B926B916B906B85B30AEF04F0446A57
:1004E000036A4450450F016E000E03220150BB6F9A
:1004F00003C0BCF009C0C0F008C0BFF007C0BEF028
:1005000006C0BDF001EC01F0BCC0EAFFBBC0E9FFD2
:1005100001C0EFFF010E0626D8B0072AD8B4082A7A
:10052000D8B4092A4450442A036A450FE96E000EE4
:100530000320EA6EEF500A08D8B4A4EF02F044504A
:100540004008D8B070EF02F0858145503A08D8A431
:1005500007EF04F0C06B460EBF6F72EC01F001C0F4
:100560009AF0C06B480EBF6F72EC01F001C0BBF097
:10057000C06B4A0EBF6F72EC01F001C0BCF0BBC093
:1005800089F0BCC088F0C06B4C0EBF6F72EC01F0FC
:1005900001C087F08AC08EF08BC08FF088C08CF0CD
:1005A00089C08DF0866B010E996F040E445C995DD5
:1005B000D8B0F1EF02F0036A9951450F016E000EB9
:1005C00003220150BB6F03C0BCF0BCC0C0F0BBC075
:1005D000BFF072EC01F001508627020E9927D5EF8B
:1005E00002F0FF0ED8808655010F866F040E445C22
:1005F000036A450F016E000E03220150BB6F03C05A
:10060000BCF0BCC0C0F0BBC0BFF072EC01F0015048
:10061000865DD8B410EF03F08591859505EF04F061
:10062000872D16EF03F0858305EF04F0875104084A
:10063000D8A42FEF03F0C06B4E0EBF6F72EC01F029
:1006400001C0BBF0C06B500EBF6F72EC01F001C077
:10065000BCF0BBC08BF0BCC08AF005EF04F0875340
:10066000D8A405EF04F08F53D8A440EF03F08E53C5
:10067000D8A440EF03F08D510F08D8B0FDEF03F080
:100680008F53D8A4FDEF03F08E510108D8A0FDEFE1
:1006900003F0090E996F986B040E445C995DD8B015
:1006A00077EF03F09851982B036A9B0F016E000EB1
:1006B00003220150BB6F03C0BCF0036A9951450F80
:1006C000016E000E03220150BD6F03C0BEF0BEC01C
:1006D000C0F0BDC0BFF072EC01F0BCC0EAFFBBC00F
:1006E000E9FF01C0EFFF020E99274CEF03F0945190
:1006F0008C5DD8A48BEF03F095518D5DD8A48BEF62
:1007000003F096518E5DD8A48BEF03F097518F5D67
:10071000D8B4E2EF03F09451006E9551030B016ED3
:10072000026A036A000ED8800056040E0156000EBD
:100730000256000E035694510026955101229651FF
:1007400002229751032203508F5DD8A0E2EF03F0FD
:10075000D8A4C0EF03F002508E5DD8A0E2EF03F002
:10076000D8A4C0EF03F001508D5DD8A0E2EF03F0F4
:10077000D8A4C0EF03F08C51005CD8B0E2EF03F0D6
:100780008C51BB6F8D51030BBC6FBD6BBE6BBB53EC
:10079000D8A4D7EF03F0BC53D8A4D7EF03F0BD53D0
:1007A000D8A4D7EF03F0BE53D8B4E2EF03F0D08C57
:1007B0008EC0F8FF8DC0F7FF8CC0F6FFA688ADECA9
:1007C00001F0F86A9A518C25946F000E8D21956F77
:1007D000000E8E21966F000E8F21976F8EC0F8FF4E
:1007E0008DC0F7FF8CC0F6FFEA6A9B0EE96E9AC0D7
:1007F000BBF0BCEF01F005EF04F0010E9027000EF6
:100800009123000E9223000E932308EF04F08595A8
:100810006CEF02F0BE6BBD6BBC6BBB6BBF6BF5EFDF
:1008200001F085A53EEF04F09353D8A43EEF04F009
:100830009253D8A43EEF04F09153D8A43EEF04F0B5
:1008400090510908D8A03EEF04F0162C32EF04F0C6
:100850000EC00AF00FC00BF010C00CF011C00DF06C
:100860003AEF04F012C00AF013C00BF014C00CF001
:1008700015C00DF0166A176A40EF04F0010E172636
:10088000996B99513308D8A05BEF04F0036A995132
:100890000A0FE96E000E0320EA6EEFCFBBF0BF6BCC
:1008A000BE6BBD6B99C0BCF0BBC0C0F02FEF02F0B7
:1008B000992B41EF04F0040EBB6FFA0EBC6F17ECDE
:1008C00001F0BB2FFAD7FF0068EF04F064EF02F0ED
:1008D000BBEF04F0F86AD09E3E0E006E100E016E63
:1008E000020EE96E000EEA6EEE6A002E74EF04F05E
:1008F000012E74EF04F0C69A400EC76E200EC66E2D
:10090000949A94889496C088FF0EC16EC098C29C39
:10091000C29EC088FF0EC26EC098D26AD16A200EF5
:100920003E6E520E3F6ED80E406E416A426A436A76
:100930002CEF01F01652D8A4A0EF04F000EF08F05D
:1009400016500208D8A4B1EF04F017500208D8A03E
:10095000B1EF04F0096A040E086E076A066AB9EF7F
:1009600004F0096A060E086E076A066A010E166E22
:10097000176A66EF04F0640EBC6F17EC01F0BBEF72
:0409800004F003007C
:020000040001F9
:06FFF80080F4C4F7F8FBE1
:00000001FF
;PIC18F67J11
;CRC=2DED  CREATED="20-szept.-18 18:28"
