:0400000013EF06F004
:08000800046ED8CF05F0E0CF33
:1000100006F00001E9CF0CF0EACF07F0E1CF08F0DD
:10002000E2CF09F0D9CF0AF0DACF0BF0F3CF12F01C
:10003000F4CF13F0FACF14F0F5CF15F0F6CF16F099
:10004000F7CF17F0F8CF18F0FBCF19F000C00EF083
:1000500001C00FF002C010F003C011F0F2AA34EF9B
:1000600000F0F2B4E7EF00F09DAA3AEF00F09EBA7C
:1000700065EF00F00EC000F00FC001F010C002F0FC
:1000800011C003F00CC0E9FF07C0EAFF078E08C0EB
:10009000E1FF09C0E2FF0AC0D9FF0BC0DAFF12C0BE
:1000A000F3FF13C0F4FF14C0FAFF15C0F5FF16C02C
:1000B000F6FF17C0F7FF18C0F8FF19C0FBFF045088
:1000C00006C0E0FF05C0D8FF10001F809EAA66EFA3
:1000D00000F0AF50ED6F1F922350000AD8B47FEFAD
:1000E00000F0010AD8B491EF00F0030AD8B497EFFA
:1000F00000F0CA0AD8B49DEF00F0ACEF00F0EDC0FC
:1001000024F024C025F024504008D8B08CEF00F033
:10011000400E246E020E266E276AEDC0ABF0C1EFD2
:1001200000F0EDC0A8F0ED51AB27C1EF00F0EDC03D
:10013000A9F0ED51AB27C1EF00F0ED51AB27AB5368
:10014000D8B4A8EF00F01F92010E266EA9EF00F0C0
:100150001F821F90C1EF00F0036A2750280FE96E3D
:10016000000E0320EA6EEDC0EFFFED51AB27272A0A
:1001700027504008D8B0BEEF00F01F902406C1EF12
:1001800000F01FA0DFEF00F0830ED56ED76AD66AAD
:10019000F294F28A23500108D8B0DCEF00F0245228
:1001A000D8A4DCEF00F02350C708D8A0DCEF00F0A3
:1001B000C80E236EDDEF00F0232AE4EF00F0236A7F
:1001C000276AD76AD66AF29A9E9A3AEF00F01F928F
:1001D000236A030E266E276AD76AD66AF29AF294C9
:1001E0003AEF00F0CE50CFCF03F09EA004EF01F025
:1001F000010E1B26D8B01C2AD8B41D2AD8B41E2A3A
:100200009E90CE50CFCF03F0006E03C001F01BC014
:1002100002F01CC003F01D50E832033202320132FA
:100220000032E8320332023201320032E832033265
:10023000023201320032E83203320232013200323D
:10024000E8320332023201320032E8320332023243
:10025000013200321200C950EAC0C9FFC730D8A02D
:100260002EEF01F0C9CF00F0120094948B94050E8C
:10027000EA6F2BEC01F0EA6B2BEC01F0015000C0AF
:10028000E3F094948B84000EE3B1010E016E4EEF07
:1002900001F094948B84120035EF01F00152D8A440
:1002A0004CEF01F094948B94E1C0EAF02BEC01F058
:1002B000E253D8B45EEF01F049EC01F012009494DF
:1002C0008B84949494948B84040EE16F010EE26FFE
:1002D0004CEC01F0800EE16F010EE26F4CEC01F08E
:1002E000E3EF02F0060EE16F010EE26F4CEC01F05D
:1002F000010EE16FE26B4CEC01F0EA6B2BEC01F0CC
:1003000049EC01F0060EE16F010EE26F4CEC01F0DA
:10031000010EE16F010EE26F4CEC01F0CD5180094E
:10032000CE6FCEC0EAF02BEC01F049EC01F01200E8
:100330002050010AD8B4AFEF01F0030AD8B4B7EFE8
:1003400001F0010AD8B4C0EF01F0070AD8B4C9EF30
:1003500001F0010AD8B4D2EF01F0DBEF01F0969E74
:100360008D9E969C8D9C216A226AE3EF01F0969EF9
:100370008D9E969C8D9C050E216E226AE3EF01F006
:10038000969E8D9E969C8D9C216A050E226EE3EFB3
:1003900001F0969E8D9E969C8D9C216A020E226E87
:1003A000E3EF01F0969E8D9E969C8D8C216A020E45
:1003B000226EE3EF01F0969E8D9E969C8D9C216AA5
:1003C000226AE3EF01F01200E3C0E6F0E4C0E7F0D8
:1003D000E86BE96BE76BE86BE96BE6C0EAF02BECE6
:1003E00001F0E2C0E6F0E3C0E7F0E4C0E8F0E96B5A
:1003F000E76BE86BE96BE6C0EAF02BEC01F0E1514A
:10040000E56FE66BE76BE86BE5C0EAF02BEC01F01B
:100410001200D853D8A41FEF02F0D7513F08D8B02C
:1004200021EF02F0FF0AD8A41FEF02F0D653D8A4A0
:100430001FEF02F0D5510008D8B021EF02F066EFAF
:1004400002F00B0EE16FE26B4CEC01F0D8C0E4F06F
:10045000D7C0E3F0D6C0E2F0D5C0E1F0E4EC01F0A3
:10046000EA6B2BEC01F0DE51036EDD51026EDC51C4
:10047000016EDB51006EFF0EDB27D8A0DC27D8A071
:10048000DD27D8A0DE270052D8A453EF02F0015296
:10049000D8A453EF02F00252D8A453EF02F0035253
:1004A000D8B464EF02F0DA51036ED951D92BD8B425
:1004B000DA2BE96E03C0EAFFEA6B2BEC01F0015086
:1004C00000C0EFFF33EF02F049EC01F01200D46BF3
:1004D000D36BD26BD16BD0C0D8F0CFC0D7F0CEC029
:1004E000D6F0CDC0D5F0DA6BD10ED96FDE6BDD6BF7
:1004F000DC6B040EDB6F09EC02F0D1C000F0D2C05F
:1005000001F0D3C002F0D4C003F01200D16BD0C010
:10051000D8F0CFC0D7F0CEC0D6F0CDC0D5F0DA6BD2
:10052000D10ED96FDE6BDD6BDC6B010EDB6F09EC7E
:1005300002F0D151016E1200D06BCF6BCE6BCD6B40
:1005400067EC02F003C0AFF002C0AEF001C0ADF046
:1005500000C0ACF0D06BCF6BCE6B040ECD6F67ECF0
:1005600002F003C0B3F002C0B2F001C0B1F000C0AD
:10057000B0F0D06BCF6BCE6B080ECD6F67EC02F096
:1005800003C0B7F002C0B6F001C0B5F000C0B4F0CF
:10059000D06BCF6BCE6B0C0ECD6F86EC02F001C032
:1005A000BDF0D06BCF6BCE6B0D0ECD6F86EC02F035
:1005B00001C0BEF0EDEF02F01F941F921F909494C3
:1005C0008B845FEF01F0CD6B72EC01F0266A050EB3
:1005D000206E98EC01F09CEF02F075EF06F0D1511F
:1005E000CD5D006ED251CE59016ED351CF59026EFE
:1005F000D451D059036E91EF06F02050010AD8B4BF
:1006000014EF03F0030AD8B418EF03F0010AD8B4CA
:1006100023EF03F0070AD8B42EEF03F0010AD8B491
:100620003BEF03F048EF03F0969E8D7E4CEF03F016
:1006300021062152D8A421EF03F0969E8D7E050E4F
:10064000216E4CEF03F022062252D8A42CEF03F0C7
:10065000969C8D7C050E226E4CEF03F022062252F2
:10066000D8A439EF03F0969C8D7C969E8D7E020E69
:10067000226E4CEF03F022062252D8A446EF03F07C
:10068000969C8D7C969E8D7E020E226E4CEF03F022
:10069000969C8D7C4CEF03F0B1EF06F09EA84EEFD8
:1006A00003F0AE6E1200D06B040E6825CF6FCDC084
:1006B0006AF0CDC0AAF0CE6B010ECF5DCE5DD8B092
:1006C0006EEF03F0036ACE51680FE96E000E03204F
:1006D000EA6EEF50D05FCE2B5CEF03F0010ECF5DE2
:1006E000036A680FE96E000E0320EA6ED0C0EFFFC8
:1006F000CE6BCF51CE5DD8B08DEF03F0036ACE51F3
:10070000680FE96E000E0320EA6EEFCFD1F0D151F1
:100710004EEC03F0CE2B79EF03F01200D453D8A4A3
:10072000A4EF03F0D3513F08D8B0A6EF03F0FF0ABF
:10073000D8A4A4EF03F0D253D8A4A4EF03F0D1516E
:100740000008D8B0A6EF03F0C6EF03F0060EE16F85
:10075000010EE26F4CEC01F0036AD551BF0FE96E58
:10076000000E0320EA6EEFCFD6F0D6C0E1F0E26BC8
:100770004CEC01F0D4C0E4F0D3C0E3F0D2C0E2F01E
:10078000D1C0E1F0E4EC01F049EC01F01200000E00
:100790004EEC03F0000E4EEC03F0CD514EEC03F0A6
:1007A000CD1DCE6FCE2BCE514EEC03F0CDC0AAF0B6
:1007B0001200D853D8A4EFEF03F0D7513F08D8B0B8
:1007C000F1EF03F0FF0AD8A4EFEF03F0D653D8A45B
:1007D000EFEF03F0D5510008D8B0F1EF03F0BEEF12
:1007E00004F0DB53D8A403EF04F0DC53D8A403EFE8
:1007F00004F0DD53D8A403EF04F0DE53D8A403EFD4
:1008000004F0BEEF04F0060EE16F010EE26F4CEC57
:1008100001F0DF69E069D5B121EF04F0DA51036E30
:10082000D951D92BD8B4DA2BE96E03C0EAFFEFCF48
:10083000DFF0010EDB5F000EDC5B000EDD5B000E07
:10084000DE5BDB53D8A431EF04F0DC53D8A431EFE6
:1008500004F0DD53D8A431EF04F0DE53D8B444EFF4
:1008600004F0DA51036ED951D92BD8B4DA2BE96EE2
:1008700003C0EAFFEFCFE0F0010EDB5F000EDC5BB0
:10088000000EDD5B000EDE5BD591AD0EE16FE26B1D
:100890004CEC01F0D8C0E4F0D7C0E3F0D6C0E2F0F1
:1008A000D5C0E1F0E4EC01F0DFC0EAF02BEC01F0A0
:1008B000E0C0EAF02BEC01F049EC01F0DB53D8A4E6
:1008C0006EEF04F0DC53D8A46EEF04F0DD53D8A42F
:1008D0006EEF04F0DE53D8B4B8EF04F0DA51036ED3
:1008E000D951D92BD8B4DA2BE96E03C0EAFFEFCF88
:1008F000DFF0010EDB5F000EDC5B000EDD5B000E47
:10090000DE5BDB53D8A491EF04F0DC53D8A491EF65
:1009100004F0DD53D8A491EF04F0DE53D8B4A6EF71
:1009200004F0DA51036ED951D92BD8B4DA2BE96E21
:1009300003C0EAFFEFCFE0F0010EDB5F000EDC5BEF
:10094000000EDD5B000EDE5BA7EF04F0E069AD0E8C
:10095000E16FE26B4CEC01F0DFC0EAF02BEC01F050
:10096000E0C0EAF02BEC01F049EC01F05EEF04F09E
:10097000040EE16F010EE26F4CEC01F012001FA2B9
:1009800082EF05F0D76AD66AF29A1F92A851AA0A96
:10099000D8B4D5EF04F0010AD8B40FEF05F01B0A64
:1009A000D8B430EF05F076EF05F01F86A9C0B8F097
:1009B000BC6B060EBB6FBA6BB96BBCC0D4F0BBC0CE
:1009C000D3F0BAC0D2F0B9C0D1F0020ED56F8EEC20
:1009D00003F0B951CD6FBA51CE6F010EBB25CF6F69
:1009E000000EBC21D06FD0C0D4F0CFC0D3F0CEC0A9
:1009F000D2F0CDC0D1F0020ED56F8EEC03F0B82B43
:100A0000B853D8A405EF05F0B82B040E206E98EC6F
:100A100001F0A9C0CDF0C7EC03F082EF05F028503B
:100A200029102A10000AD8B421EF05F028C0B0F030
:100A300029C0B1F02AC0B2F0B36B010EBD6FBE6B1E
:100A40001F881F96050E206E98EC01F0A9C0CDF00E
:100A5000C7EC03F0020ECD6F72EC01F082EF05F0EF
:100A60001FA66AEF05F0A951B85DD8A45EEF05F0A6
:100A7000BCC0D8F0BBC0D7F0BAC0D6F0B9C0D5F072
:100A8000DA6B280ED96FDE6BDD6BDC6B25C0DBF01B
:100A9000D9EC03F02550B927000EBA23000EBB2372
:100AA000000EBC23B82BB853D8A458EF05F0B82BD0
:100AB000A9C0CDF0C7EC03F068EF05F0010E686F38
:100AC000050E696F170E6B6FA9C0CDF053EC03F0E4
:100AD00074EF05F0010E686F050E696F180E6B6FED
:100AE000A9C0CDF053EC03F082EF05F0010E686F62
:100AF000050E696F160E6B6FA9C0CDF053EC03F0B5
:100B000082EF05F0CDEF06F0D0C0D8F0CFC0D7F01F
:100B1000CEC0D6F0CDC0D5F0DA6BD10ED96FDE6B7A
:100B2000DD6BDC6B040EDB6FD9EC03F01200D053ED
:100B3000D8A4ADEF05F0CF513F08D8B0AFEF05F026
:100B4000FF0AD8A4ADEF05F0CE53D8A4ADEF05F061
:100B5000CD510008D8B0AFEF05F0CAEF05F0060E92
:100B6000E16F010EE26F4CEC01F0020EE16FE26BFF
:100B70004CEC01F0D0C0E4F0CFC0E3F0CEC0E2F026
:100B8000CDC0E1F0E4EC01F0D1C0EAF02BEC01F0D3
:100B900049EC01F01200D46BD36BD26BD16BD56BE7
:100BA0008EEC03F0D06BCF6BCE6BCD6BAFC0D4F0BF
:100BB000AEC0D3F0ADC0D2F0ACC0D1F084EC05F043
:100BC000D06BCF6BCE6B040ECD6FB3C0D4F0B2C080
:100BD000D3F0B1C0D2F0B0C0D1F084EC05F0D06B4E
:100BE000CF6BCE6B080ECD6FB7C0D4F0B6C0D3F0CC
:100BF000B5C0D2F0B4C0D1F084EC05F0D06BCF6BAF
:100C0000CE6B0C0ECD6FBDC0D1F097EC05F0D06B64
:100C1000CF6BCE6B0D0ECD6FBEC0D1F097EC05F053
:100C20001F98D2EF06F0F86AD09E078E3E0E006E37
:100C3000100E016E020EE96E000EEA6EEE6A002ED4
:100C40001EEF06F0012E1EEF06F07E86560EB06EE9
:100C5000000E7F6EA60EAD6E900EAC6E1E6A1D6A03
:100C60001C6A1B6AB50ECD6ECF6ACE6A9E90266A4C
:100C7000276AC69A400EC76E200EC66E949A948854
:100C80009496C088FF0EC16EC098C29CC29EC08858
:100C9000FF0EC26EC098D26AD16A200EBF6F520E8C
:100CA000C06FD80EC16FC26BC36BC46B000E016EF8
:100CB0000150766E000E776ED26AD16A9D8AC00EA0
:100CC000F212F2EC00F003C0CCF002C0CBF001C095
:100CD000CAF000C0C9F0CCC0C8F0CBC0C7F0CAC0D1
:100CE000C6F0C9C0C5F0DCEF02F0F2EC00F003C0C2
:100CF000C8F002C0C7F001C0C6F000C0C5F0C8C04F
:100D0000D0F0C7C0CFF0C6C0CEF0C5C0CDF0CCC0CB
:100D1000D4F0CBC0D3F0CAC0D2F0C9C0D1F0EFEF4D
:100D200002F003C0D0F002C0CFF001C0CEF000C08E
:100D3000CDF0D053D8A4AFEF06F0CF53D8A4AFEF87
:100D400006F0CE510208D8B0B9EF06F0FF0AD8A4D9
:100D5000AFEF06F0CD51E708D8B0B9EF06F0FDEFE0
:100D600002F0C8C0CCF0C7C0CBF0C6C0CAF0C5C046
:100D7000C9F02652D8B4C8EF06F0010E686F050E10
:100D8000696F26C06BF0A9C0CDF053EC03F0266A62
:100D90001FA2CDEF06F0BFEF04F01FA8D2EF06F0C0
:0A0DA000CBEF05F075EF06F003003D
:020000040001F9
:06FFF80080F4C4F7F8FBE1
:00000001FF
;PIC18F67J11
;CRC=657D  CREATED="27-jún.-18 18:37"
